{
  "_format": "hh-sol-artifact-1",
  "contractName": "Counter",
  "sourceName": "contracts/Counter.sol",
  "abi": [
    {
      "inputs": [],
      "name": "getCount",
      "outputs": [
        {
          "internalType": "uint256",
          "name": "",
          "type": "uint256"
        }
      ],
      "stateMutability": "view",
      "type": "function"
    },
    {
      "inputs": [],
      "name": "increment",
      "outputs": [],
      "stateMutability": "nonpayable",
      "type": "function"
    },
    {
      "inputs": [
        {
          "internalType": "uint256",
          "name": "newValue",
          "type": "uint256"
        }
      ],
      "name": "update",
      "outputs": [],
      "stateMutability": "nonpayable",
      "type": "function"
    }
  ],
  "bytecode": "0x6080604052348015600f57600080fd5b506101e38061001f6000396000f3fe608060405234801561001057600080fd5b50600436106100415760003560e01c806382ab890a14610046578063a87d942c14610062578063d09de08a14610080575b600080fd5b610060600480360381019061005b91906100f3565b61008a565b005b61006a610094565b604051610077919061012f565b60405180910390f35b61008861009d565b005b8060008190555050565b60008054905090565b60016000808282546100af9190610179565b92505081905550565b600080fd5b6000819050919050565b6100d0816100bd565b81146100db57600080fd5b50565b6000813590506100ed816100c7565b92915050565b600060208284031215610109576101086100b8565b5b6000610117848285016100de565b91505092915050565b610129816100bd565b82525050565b60006020820190506101446000830184610120565b92915050565b7f4e487b7100000000000000000000000000000000000000000000000000000000600052601160045260246000fd5b6000610184826100bd565b915061018f836100bd565b92508282019050808211156101a7576101a661014a565b5b9291505056fea2646970667358221220f781c5345969a578afd3516a7d395462b90597a2c3dfec78c52f558310fcaf0864736f6c634300081b0033",
  "linkReferences": {},
  "deployedLinkReferences": {}
}